:100000000C9456000C9473000C9473000C947300C1
:100010000C9473000C9473000C9473000C94730094
:100020000C9473000C9483030C9473000C94730071
:100030000C9473000C9473000C9473000C94730074
:100040000C9473000C9473000C9473000C94730064
:100050000C9473000C9473000C9473000C94730054
:100060000C9473000C9425010C9473000C94730091
:100070000C9473000C9473000C9473000C94730034
:100080000C9473000C9473000C9473000C94730024
:100090000C9473000C9473000C9473000C94730014
:1000A0000C9473000C9473000C94730011241FBE05
:1000B000CFEFDAE0DEBFCDBF11E0A0E0B1E0E6ECCB
:1000C000F0E102C005900D92A634B107D9F711E016
:1000D000A6E4B1E001C01D92A937B107E1F70E9483
:1000E0008F030C9461080C9400008D3039F021E0EE
:1000F00030E08A3029F020E030E002C021E030E03A
:10010000822F0895982F905281E09F3508F080E06B
:1001100008958AB1886C8AB952985E9A5F9883E391
:1001200090E09093CD008093CC0088E98093C90043
:100130008EE08093CA000895CF93DF93DC019C91F9
:10014000992361F01196E8ECF0E0CEECD0E08081EC
:1001500085FFFDCF98839D919923C9F780E29EE4A6
:100160000197F1F7DF91CF9108950F931F93CF93EC
:10017000DF938C0180E090E00E9470072DB73EB7BE
:10018000285030400FB6F8943EBF0FBE2DBFEDB7DC
:10019000FEB73196C9E4D1E0ADB7BEB71296DC9395
:1001A000CE93119720E031E033832283848315823C
:1001B000178306830E9470052DB73EB7285F3F4F17
:1001C0000FB6F8943EBF0FBE2DBFCE010E949C001B
:1001D000DF91CF911F910F9108950F931F93CF93AC
:1001E000DF938C0180E090E00E9470072DB73EB74E
:1001F000285030400FB6F8943EBF0FBE2DBFEDB76C
:10020000FEB73196C9E4D1E0ADB7BEB71296DC9324
:10021000CE93119727E031E03383228384831582C4
:10022000178306830E9470052DB73EB7285F3F4FA6
:100230000FB6F8943EBF0FBE2DBFCE010E949C00AA
:10024000DF91CF911F910F9108951F920F920FB6DA
:100250000F9211242F933F934F935F936F937F934C
:100260008F939F93AF93BF93CF93EF93FF9391B3EC
:1002700081E0892781BBC091CE008C2F0E94750040
:10028000882389F080914701E9E5F1E0E80FF11D4D
:1002900010821092470181E08093460191B380E281
:1002A000892781BB0FC08C2F0E948200882351F0C8
:1002B00080914701E9E5F1E0E80FF11DC0838F5F10
:1002C00080934701FF91EF91CF91BF91AF919F91A3
:1002D0008F917F916F915F914F913F912F910F90EF
:1002E0000FBE0F901F9018950E945105282F392F8F
:1002F00081E02115310509F080E00895E62FF72F00
:10030000DF010D900020E9F7AD01415050404E1B38
:100310005F0B0E945A05282F392F81E021153105E6
:1003200009F080E008958F929F92AF92BF92CF9292
:10033000DF92EF92FF920F931F93CF93DF93EC0125
:1003400091B382E0892781BBCE010E9433050097DB
:1003500009F0CCC188818A3331F0FE0131962196B3
:1003600081918A33E1F78E010F5F1F4FC80160E171
:1003700071E00E947E01882351F0CE0103960E9415
:100380003305682F80E090E00E947807AFC1C80174
:1003900063E171E00E947401882339F180E090E00C
:1003A0000E94700700D000D000D0EDB7FEB73196A4
:1003B000C9E6D1E0ADB7BEB71296DC93CE931197E4
:1003C00025E131E033832283848315820E94700506
:1003D0002DB73EB72A5F3F4F0FB6F8943EBF0FBE12
:1003E0002DBFCE010E94ED0081C1C8016BE171E01B
:1003F0000E947E01882309F465C0C8016BE171E0A9
:100400000E947401882309F06AC1CE0102960E94FD
:1004100033055C985D9AAC01BA01882777FD809519
:10042000982F0E941C046B017C0120E030E04AE719
:1004300055E40E94A804162FD72F082FC92F862F06
:100440009D2FA02FBC2FBC01CD0120E030E040E863
:100450005FE30E94EA0388237CF1812F9D2FA02F68
:10046000BC2FBC01CD0120E03FEF4FE757E40E94D5
:10047000A4041816B4F4C701B60120E030E040E24D
:1004800051E40E94A8040E94EE03DC01CB01009716
:10049000B9F020E931E0F9013197F1F70197D9F787
:1004A0000FC0812F9D2FA02FBC2FBC01CD010E941A
:1004B000EE03DC01CB0102C081E090E00197F1F78F
:1004C0005D9814C1C8016DE171E00E947401882338
:1004D00021F05D985C9A8C9809C1C8016FE171E0C8
:1004E0000E947401882359F12CB100D000D000D0B3
:1004F000EDB7FEB7319689E691E0ADB7BEB712967B
:100500009C938E93119782E291E09383828381E0A2
:1005100090E026FD02C080E090E0958384830E94F5
:1005200070052DB73EB72A5F3F4F0FB6F8943EBF18
:100530000FBE2DBF89E691E00E94ED00D7C0C80133
:1005400068E271E00E947E01882309F446C0CE0172
:1005500002960E9433058130910521F08230910589
:1005600079F407C021E030E0489B0CC020E030E087
:1005700009C021E030E0499B05C020E030E002C026
:100580002FEF3FEF4DB75EB7485050400FB6F8948D
:100590005EBF0FBE4DBFEDB7FEB73196C9E6D1E0E5
:1005A000ADB7BEB71296DC93CE9311974AE251E0F5
:1005B0005383428395838483378326830E94700507
:1005C0002DB73EB7285F3F4F0FB6F8943EBF0FBE22
:1005D0002DBFCE010E94ED0089C0C80161E371E02A
:1005E0000E947E01882309F44BC0CE0103960E942D
:1005F00033059C018130910521F08230910599F4F9
:1006000009C083B1992787FD90958827990F881F86
:1006100099270BC086B1992787FD90958827990F58
:10062000881F992702C08FEF9FEF4DB75EB74850E4
:1006300050400FB6F8945EBF0FBE4DBFEDB7FEB78A
:100640003196C9E6D1E0ADB7BEB71296DC93CE9332
:10065000119744E351E05383428335832483978386
:1006600086830E9470052DB73EB7285F3F4F0FB6B7
:10067000F8943EBF0FBE2DBFCE010E94ED0036C0E4
:10068000C8016CE371E00E947E01882341F0CE0135
:1006900003960E943305809398008D9827C0C80167
:1006A0006FE371E00E947E01882359F0CE0103962A
:1006B0000E94330521E0009709F420E020934401D3
:1006C00015C0C80162E471E00E947401882319F02A
:1006D000109248010BC0C8010E94B50007C05C9889
:1006E0005D9A10E0D0E40CE9C6E4DBCEDF91CF9157
:1006F0001F910F91FF90EF90DF90CF90BF90AF9040
:100700009F908F9008951F920F920FB60F92112411
:100710001C9B5C980F900FBE0F901F901895E1E600
:10072000F0E080E88083108285BF85BF80B3836F4F
:1007300080BB81B3836F81BB559A549A5D985C9856
:100740002498E8E6F0E0808181608083EBE6F0E0C9
:100750008081806180838AB18C7F8AB96E9880E1C4
:1007600080936A00EE9A27983F980E94890080E162
:1007700097E220E931E0F9013197F1F70197D9F7D4
:100780003E9A81E8809390008CE0809391001092D3
:100790009800789408E910E0C9E5D1E0809144011F
:1007A000882359F080914801843638F05C985D9830
:1007B000F801108210924801F1CF80914601882300
:1007C00069F381B3805881BBCE010E9493011092DE
:1007D0004601E4CF6CD008F481E0089594D088F00D
:1007E0009F5790F0B92F9927B751A0F0D1F0660F1D
:1007F000771F881F991F1AF0BA95C9F712C0B13038
:1008000081F09BD0B1E0089598C0672F782F88279A
:10081000B85F39F0B93FCCF3869577956795B39576
:10082000D9F73EF490958095709561957F4F8F4FE5
:100830009F4F0895E89409C097FB3EF490958095EA
:10084000709561957F4F8F4F9F4F9923A9F0F92F96
:1008500096E9BB279395F695879577956795B79514
:10086000F111F8CFFAF4BB0F11F460FF1BC06F5FFA
:100870007F4F8F4F9F4F16C0882311F096E911C00C
:10088000772321F09EE8872F762F05C0662371F02D
:1008900096E8862F70E060E02AF09A95660F771F41
:1008A000881FDAF7880F9695879597F90895990F1D
:1008B0000008550FAA0BE0E8FEEF16161706E8072A
:1008C000F907C0F012161306E407F50798F0621B4B
:1008D000730B840B950B39F40A2661F0232B242B20
:1008E000252B21F408950A2609F4A140A6958FEF3F
:1008F000811D811D089557FD9058440F551F59F0D3
:100900005F3F71F04795880F97FB991F61F09F3FFC
:1009100079F087950895121613061406551FF2CF25
:100920004695F1DF08C0161617061806991FF1CF75
:1009300086957105610508940895E894BB2766279C
:100940007727CB0197F90895B2DF08F48FEF089568
:100950000BD078C069D028F06ED018F0952309F03C
:100960005AC05FC01124EACFC6DFA0F3959FD1F330
:10097000950F50E0551F629FF001729FBB27F00D4D
:10098000B11D639FAA27F00DB11DAA1F649F6627A2
:10099000B00DA11D661F829F2227B00DA11D621FF1
:1009A000739FB00DA11D621F839FA00D611D221FAB
:1009B000749F3327A00D611D231F849F600D211D8F
:1009C000822F762F6A2F11249F5750408AF0E1F032
:1009D00088234AF0EE0FFF1FBB1F661F771F881F7B
:1009E00091505040A9F79E3F510570F014C0A6CF1A
:1009F0005F3FECF3983EDCF3869577956795B79566
:100A0000F795E7959F5FC1F7FE2B880F911D96958F
:100A1000879597F9089597F99F6780E870E060E0FF
:100A200008959FEF80EC089500240A941616170687
:100A300018060906089500240A94121613061406CF
:100A400005060895092E0394000C11F4882352F032
:100A5000BB0F40F4BF2B11F460FF04C06F5F7F4FEA
:100A60008F4F9F4F0895FC0188279927E894219183
:100A70002032E9F3293010F02E30C8F32B3241F048
:100A80002D3239F4689404C00E946805820F911DCC
:100A9000219120532A30C0F31EF4909581959F4FE9
:100AA0000895FB01DC018D91019080190110D9F3AB
:100AB000990B0895FB01DC014150504030F08D91BD
:100AC0000190801919F40020B9F7881B990B08953B
:100AD0007AE0979F902D879F802D910D1124089586
:100AE000AEE0B0E0E6E7F5E00C9438080D891E8929
:100AF00086E08C831A8309838FEF9FE79E838D8323
:100B0000AE01475E5F4FCE0101966F89788D0E94DE
:100B10009205EF81F885E00FF11F10822E96E4E038
:100B20000C945408ADE0B0E0E8E9F5E00C942A0834
:100B30003C017D876C875A01FC01178216828381F4
:100B400081FFC8C12E010894411C511CF3019381FF
:100B5000EC85FD8593FD859193FF8191FD87EC8761
:100B6000882309F4B3C1853241F493FD859193FF45
:100B70008191FD87EC87853229F490E0B3010E94D2
:100B8000A007E4CFFF24EE2410E01032B0F48B3243
:100B900069F08C3228F4803251F0833271F40BC04A
:100BA0008D3239F0803349F411602CC0126014602A
:100BB00029C0186027C0106125C017FD2EC0282F3E
:100BC00020532A3098F416FF08C08F2D880FF82E76
:100BD000FF0CFF0CF80EF20E15C08E2D880FE82EBC
:100BE000EE0CEE0CE80EE20E10620CC08E3221F418
:100BF00016FD6CC1106406C08C3611F4106802C07A
:100C0000883659F4EC85FD8593FD859193FF81919C
:100C1000FD87EC87882309F0B8CF982F955493303F
:100C200018F09052933038F424E030E0A20EB31E56
:100C30003FE339830FC0833631F0833781F083354A
:100C400009F05AC022C0F5018081898322E030E09A
:100C5000A20EB31E21E0C22ED12C420114C092E09C
:100C6000292E312C2A0C3B1CF5018080918016FF27
:100C700003C06F2D70E002C06FEF7FEFC4010E94D0
:100C800095076C0151011F7715C082E0282E312C89
:100C90002A0C3B1CF5018080918016FF03C06F2D4C
:100CA00070E002C06FEF7FEFC4010E948A076C0101
:100CB0001068510113FD1CC006C080E290E0B30132
:100CC0000E94A007EA948E2D90E0C816D906A8F3DA
:100CD0000FC0F40117FD859117FF81914F0190E03E
:100CE000B3010E94A007E110EA940894C108D1085A
:100CF000C114D10471F7E7C0843611F0893651F57B
:100D0000F50117FF07C080819181A281B38124E0A2
:100D100030E008C080819181AA2797FDA095BA2F65
:100D200022E030E0A20EB31E012F0F76B7FF08C0FD
:100D3000B095A095909581959F4FAF4FBF4F00689C
:100D4000BC01CD01A2012AE030E00E94CC07D82EE0
:100D5000D4183FC0853721F41F7E2AE030E020C040
:100D6000197F8F36A9F0803720F4883509F0AEC09E
:100D70000BC0803721F0883709F0A8C001C010618E
:100D800014FF09C0146007C014FF08C0166006C035
:100D900028E030E005C020E130E002C020E132E090
:100DA000F50117FF07C0608171818281938144E062
:100DB00050E006C06081718180E090E042E050E048
:100DC000A40EB51EA2010E94CC07D82ED418012F64
:100DD0000F7706FF09C00E7FDF1430F404FF06C052
:100DE00002FD04C00F7E02C01D2D01C01F2D802FEB
:100DF00090E004FF0CC0FE01ED0DF11D20812033B9
:100E000011F4097E09C002FF06C01E5F05C0867886
:100E10009070009709F01F5F802E992403FD12C087
:100E200000FF0DC0FD2C1E1550F4FE0CF11A1E2DF6
:100E300006C080E290E0B3010E94A0071F5F1E156C
:100E4000C0F304C01E1510F4E11A01C0EE2484FEA4
:100E50000FC080E390E0B3010E94A00782FE1FC094
:100E600081FE03C088E590E010C088E790E00DC0E7
:100E7000C40186789070009791F081FC02C080E2F6
:100E800001C08BE207FD8DE290E0B3010E94A00754
:100E900006C080E390E0B3010E94A007FA94DF143B
:100EA000C0F3DA94F201ED0DF11D808190E0B30101
:100EB0000E94A007DD20A9F706C080E290E0B30100
:100EC0000E94A007EA94EE20C1F740CEF30186818C
:100ED000978102C08FEF9FEF2D96E2E10C944608B8
:100EE000F999FECF92BD81BDF89A992780B50895F2
:100EF000262FF999FECF92BD81BDF89A019700B4D3
:100F0000021639F01FBA20BD0FB6F894FA9AF99A72
:100F10000FBE0895FC010590615070400110D8F794
:100F2000809590958E0F9F1F0895FC016150704031
:100F300001900110D8F7809590958E0F9F1F08950E
:100F40000F931F93CF93DF938C01EB018B8181FF74
:100F50001BC082FF0DC02E813F818C819D8128178F
:100F6000390764F4E881F9810193F983E88306C0C5
:100F7000E885F985802F0995009731F48E819F814E
:100F800001969F838E8302C00FEF1FEFC801DF9190
:100F9000CF911F910F910895FA01AA27283051F19E
:100FA000203181F1E8946F936E7F6E5F7F4F8F4F9A
:100FB0009F4FAF4FB1E03ED0B4E03CD0670F781FF9
:100FC000891F9A1FA11D680F791F8A1F911DA11DDE
:100FD0006A0F711D811D911DA11D20D009F4689417
:100FE0003F912AE0269F11243019305D3193DEF6BF
:100FF000CF010895462F4770405D4193B3E00FD075
:10100000C9F7F6CF462F4F70405D4A3318F0495D5F
:1010100031FD4052419302D0A9F7EACFB4E0A69542
:101020009795879577956795BA95C9F70097610564
:10103000710508959B01AC010A2E069457954795BA
:1010400037952795BA95C9F7620F731F841F951FAF
:10105000A01D08952F923F924F925F926F927F92C0
:101060008F929F92AF92BF92CF92DF92EF92FF92B8
:101070000F931F93CF93DF93CDB7DEB7CA1BDB0B64
:101080000FB6F894DEBF0FBECDBF09942A88398809
:1010900048885F846E847D848C849B84AA84B98410
:1010A000C884DF80EE80FD800C811B81AA81B9811C
:1010B000CE0FD11D0FB6F894DEBF0FBECDBFED0130
:0610C0000895F894FFCF33
:1010C60025643A25730A003C25643A25733E0A00D6
:1010D6006964003F0069643A2564006B006300623E
:1010E6006C00626C3A25640062006225643A2564ED
:1010F60000696F00696F25643A25640064720066B2
:06110600730070000100FF
:00000001FF
